{
    "contractName": "CoffeeShop",
    "abi": [
        {
            "inputs": [],
            "stateMutability": "nonpayable",
            "type": "constructor"
        },
        {
            "anonymous": false,
            "inputs": [
                {
                    "indexed": true,
                    "internalType": "address",
                    "name": "customer",
                    "type": "address"
                },
                {
                    "indexed": true,
                    "internalType": "uint256",
                    "name": "itemId",
                    "type": "uint256"
                }
            ],
            "name": "OrderPlaced",
            "type": "event"
        },
        {
            "inputs": [],
            "name": "ShopOwner",
            "outputs": [
                {
                    "internalType": "address",
                    "name": "",
                    "type": "address"
                }
            ],
            "stateMutability": "view",
            "type": "function",
            "constant": true
        },
        {
            "inputs": [
                {
                    "internalType": "uint256",
                    "name": "",
                    "type": "uint256"
                },
                {
                    "internalType": "uint256",
                    "name": "",
                    "type": "uint256"
                }
            ],
            "name": "feedback",
            "outputs": [
                {
                    "internalType": "string",
                    "name": "",
                    "type": "string"
                }
            ],
            "stateMutability": "view",
            "type": "function",
            "constant": true
        },
        {
            "inputs": [
                {
                    "internalType": "uint256",
                    "name": "",
                    "type": "uint256"
                }
            ],
            "name": "items",
            "outputs": [
                {
                    "internalType": "uint256",
                    "name": "price",
                    "type": "uint256"
                },
                {
                    "internalType": "address",
                    "name": "owner",
                    "type": "address"
                },
                {
                    "internalType": "uint256",
                    "name": "noOfItems",
                    "type": "uint256"
                }
            ],
            "stateMutability": "view",
            "type": "function",
            "constant": true
        },
        {
            "inputs": [
                {
                    "internalType": "address",
                    "name": "",
                    "type": "address"
                },
                {
                    "internalType": "uint256",
                    "name": "",
                    "type": "uint256"
                }
            ],
            "name": "orderHistory",
            "outputs": [
                {
                    "internalType": "string",
                    "name": "",
                    "type": "string"
                }
            ],
            "stateMutability": "view",
            "type": "function",
            "constant": true
        },
        {
            "inputs": [
                {
                    "internalType": "uint256",
                    "name": "",
                    "type": "uint256"
                },
                {
                    "internalType": "uint256",
                    "name": "",
                    "type": "uint256"
                }
            ],
            "name": "ratings",
            "outputs": [
                {
                    "internalType": "uint8",
                    "name": "",
                    "type": "uint8"
                }
            ],
            "stateMutability": "view",
            "type": "function",
            "constant": true
        },
        {
            "inputs": [
                {
                    "internalType": "uint256",
                    "name": "_index",
                    "type": "uint256"
                },
                {
                    "internalType": "string",
                    "name": "itemName",
                    "type": "string"
                }
            ],
            "name": "buyItem",
            "outputs": [],
            "stateMutability": "payable",
            "type": "function",
            "payable": true
        },
        {
            "inputs": [
                {
                    "internalType": "uint256",
                    "name": "itemId",
                    "type": "uint256"
                },
                {
                    "internalType": "uint8",
                    "name": "stars",
                    "type": "uint8"
                },
                {
                    "internalType": "string",
                    "name": "comment",
                    "type": "string"
                }
            ],
            "name": "rateItem",
            "outputs": [],
            "stateMutability": "nonpayable",
            "type": "function"
        },
        {
            "inputs": [],
            "name": "withdrawMoney",
            "outputs": [],
            "stateMutability": "nonpayable",
            "type": "function"
        }
    ],
    "bytecode": "0x6080604052336000806101000a81548173ffffffffffffffffffffffffffffffffffffffff021916908373ffffffffffffffffffffffffffffffffffffffff1602179055503480156200005157600080fd5b50336000806101000a81548173ffffffffffffffffffffffffffffffffffffffff021916908373ffffffffffffffffffffffffffffffffffffffff16021790555060005b600a8110156200059e57662386f26fc10000600182600a8110620000be57620000bd62000655565b5b60050201600001819055506000600182600a8110620000e257620000e162000655565b5b6005020160010160006101000a81548173ffffffffffffffffffffffffffffffffffffffff021916908373ffffffffffffffffffffffffffffffffffffffff1602179055506005600182600a811062000140576200013f62000655565b5b6005020160020181905550600181600a811062000162576200016162000655565b5b6005020160030180600181540180825580915050600190039060005260206000200160006040518060400160405280600881526020017f457370726573736f00000000000000000000000000000000000000000000000081525090919091509080519060200190620001d6929190620005a5565b50600181600a8110620001ee57620001ed62000655565b5b600502016004016706f05b59d3b200009080600181540180825580915050600190039060005260206000200160009091909190915055600181600a81106200023b576200023a62000655565b5b6005020160030180600181540180825580915050600190039060005260206000200160006040518060400160405280600a81526020017f43617070756363696e6f0000000000000000000000000000000000000000000081525090919091509080519060200190620002af929190620005a5565b50600181600a8110620002c757620002c662000655565b5b600502016004016709b6e64a8ec600009080600181540180825580915050600190039060005260206000200160009091909190915055600181600a811062000314576200031362000655565b5b6005020160030180600181540180825580915050600190039060005260206000200160006040518060400160405280600581526020017f4c617474650000000000000000000000000000000000000000000000000000008152509091909150908051906020019062000388929190620005a5565b50600181600a8110620003a0576200039f62000655565b5b6005020160040167058d15e1762800009080600181540180825580915050600190039060005260206000200160009091909190915055600181600a8110620003ed57620003ec62000655565b5b6005020160030180600181540180825580915050600190039060005260206000200160006040518060400160405280600581526020017f4d6f6368610000000000000000000000000000000000000000000000000000008152509091909150908051906020019062000461929190620005a5565b50600181600a811062000479576200047862000655565b5b60050201600401670429d069189e00009080600181540180825580915050600190039060005260206000200160009091909190915055600181600a8110620004c657620004c562000655565b5b6005020160030180600181540180825580915050600190039060005260206000200160006040518060400160405280600981526020017f416d65726963616e6f0000000000000000000000000000000000000000000000815250909190915090805190602001906200053a929190620005a5565b50600181600a811062000552576200055162000655565b5b60050201600401670b1a2bc2ec500000908060018154018082558091505060019003906000526020600020016000909190919091505580806200059590620006bd565b91505062000095565b5062000770565b828054620005b3906200073a565b90600052602060002090601f016020900481019282620005d7576000855562000623565b82601f10620005f257805160ff191683800117855562000623565b8280016001018555821562000623579182015b828111156200062257825182559160200191906001019062000605565b5b50905062000632919062000636565b5090565b5b808211156200065157600081600090555060010162000637565b5090565b7f4e487b7100000000000000000000000000000000000000000000000000000000600052603260045260246000fd5b7f4e487b7100000000000000000000000000000000000000000000000000000000600052601160045260246000fd5b6000819050919050565b6000620006ca82620006b3565b91507fffffffffffffffffffffffffffffffffffffffffffffffffffffffffffffffff8214156200070057620006ff62000684565b5b600182019050919050565b7f4e487b7100000000000000000000000000000000000000000000000000000000600052602260045260246000fd5b600060028204905060018216806200075357607f821691505b602082108114156200076a57620007696200070b565b5b50919050565b61159b80620007806000396000f3fe60806040526004361061007b5760003560e01c80638e4fea491161004e5780638e4fea4914610141578063a301a6761461016a578063ac446002146101a7578063bfb231d2146101be5761007b565b806304b210c614610080578063482ef360146100bd5780634e71b35c146100fa5780636ef474ac14610116575b600080fd5b34801561008c57600080fd5b506100a760048036038101906100a29190610c7a565b6101fd565b6040516100b49190610d53565b60405180910390f35b3480156100c957600080fd5b506100e460048036038101906100df9190610c7a565b6102b6565b6040516100f19190610d91565b60405180910390f35b610114600480360381019061010f9190610ee1565b6102f9565b005b34801561012257600080fd5b5061012b610743565b6040516101389190610f7e565b60405180910390f35b34801561014d57600080fd5b5061016860048036038101906101639190610fc5565b610767565b005b34801561017657600080fd5b50610191600480360381019061018c9190611060565b6108a9565b60405161019e9190610d53565b60405180910390f35b3480156101b357600080fd5b506101bc610962565b005b3480156101ca57600080fd5b506101e560048036038101906101e091906110a0565b610a59565b6040516101f4939291906110dc565b60405180910390f35b6035602052816000526040600020818154811061021957600080fd5b9060005260206000200160009150915050805461023590611142565b80601f016020809104026020016040519081016040528092919081815260200182805461026190611142565b80156102ae5780601f10610283576101008083540402835291602001916102ae565b820191906000526020600020905b81548152906001019060200180831161029157829003601f168201915b505050505081565b603460205281600052604060002081815481106102d257600080fd5b9060005260206000209060209182820401919006915091509054906101000a900460ff1681565b600a8210801561030a575060008210155b610349576040517f08c379a0000000000000000000000000000000000000000000000000000000008152600401610340906111c0565b60405180910390fd5b600073ffffffffffffffffffffffffffffffffffffffff16600183600a8110610375576103746111e0565b5b6005020160010160009054906101000a900473ffffffffffffffffffffffffffffffffffffffff1673ffffffffffffffffffffffffffffffffffffffff16146103f3576040517f08c379a00000000000000000000000000000000000000000000000000000000081526004016103ea9061125b565b60405180910390fd5b60007fffffffffffffffffffffffffffffffffffffffffffffffffffffffffffffffff905060005b600184600a811061042f5761042e6111e0565b5b60050201600201548110156105235761050783600186600a8110610456576104556111e0565b5b60050201600301838154811061046f5761046e6111e0565b5b90600052602060002001805461048490611142565b80601f01602080910402602001604051908101604052809291908181526020018280546104b090611142565b80156104fd5780601f106104d2576101008083540402835291602001916104fd565b820191906000526020600020905b8154815290600101906020018083116104e057829003601f168201915b5050505050610aa9565b15610510578091505b808061051b906112aa565b91505061041b565b507fffffffffffffffffffffffffffffffffffffffffffffffffffffffffffffffff811415610587576040517f08c379a000000000000000000000000000000000000000000000000000000000815260040161057e9061133f565b60405180910390fd5b600183600a811061059b5761059a6111e0565b5b6005020160040181815481106105b4576105b36111e0565b5b9060005260206000200154600184600a81106105d3576105d26111e0565b5b60050201600001546105e5919061135f565b341015610627576040517f08c379a000000000000000000000000000000000000000000000000000000000815260040161061e90611401565b60405180910390fd5b33600184600a811061063c5761063b6111e0565b5b6005020160010160006101000a81548173ffffffffffffffffffffffffffffffffffffffff021916908373ffffffffffffffffffffffffffffffffffffffff160217905550603360003373ffffffffffffffffffffffffffffffffffffffff1673ffffffffffffffffffffffffffffffffffffffff168152602001908152602001600020829080600181540180825580915050600190039060005260206000200160009091909190915090805190602001906106f9929190610b8d565b50823373ffffffffffffffffffffffffffffffffffffffff167ff6f21bda482268b6851cb7d134c9ef42acd2e610afc2ce82688cd2799adacca360405160405180910390a3505050565b60008054906101000a900473ffffffffffffffffffffffffffffffffffffffff1681565b600a83106107aa576040517f08c379a00000000000000000000000000000000000000000000000000000000081526004016107a19061146d565b60405180910390fd5b60018260ff16101580156107c2575060058260ff1611155b610801576040517f08c379a00000000000000000000000000000000000000000000000000000000081526004016107f8906114d9565b60405180910390fd5b603460008481526020019081526020016000208290806001815401808255809150506001900390600052602060002090602091828204019190069091909190916101000a81548160ff021916908360ff16021790555060356000848152602001908152602001600020819080600181540180825580915050600190039060005260206000200160009091909190915090805190602001906108a3929190610b8d565b50505050565b603360205281600052604060002081815481106108c557600080fd5b906000526020600020016000915091505080546108e190611142565b80601f016020809104026020016040519081016040528092919081815260200182805461090d90611142565b801561095a5780601f1061092f5761010080835404028352916020019161095a565b820191906000526020600020905b81548152906001019060200180831161093d57829003601f168201915b505050505081565b60008054906101000a900473ffffffffffffffffffffffffffffffffffffffff1673ffffffffffffffffffffffffffffffffffffffff163373ffffffffffffffffffffffffffffffffffffffff16146109f0576040517f08c379a00000000000000000000000000000000000000000000000000000000081526004016109e790611545565b60405180910390fd5b60008054906101000a900473ffffffffffffffffffffffffffffffffffffffff1673ffffffffffffffffffffffffffffffffffffffff166108fc479081150290604051600060405180830381858888f19350505050158015610a56573d6000803e3d6000fd5b50565b600181600a8110610a6957600080fd5b600502016000915090508060000154908060010160009054906101000a900473ffffffffffffffffffffffffffffffffffffffff16908060020154905083565b600080839050600083905060008251905081518114610ace5760009350505050610b87565b60005b81811015610b7e57828181518110610aec57610aeb6111e0565b5b602001015160f81c60f81b7effffffffffffffffffffffffffffffffffffffffffffffffffffffffffffff1916848281518110610b2c57610b2b6111e0565b5b602001015160f81c60f81b7effffffffffffffffffffffffffffffffffffffffffffffffffffffffffffff191614610b6b576000945050505050610b87565b8080610b76906112aa565b915050610ad1565b50600193505050505b92915050565b828054610b9990611142565b90600052602060002090601f016020900481019282610bbb5760008555610c02565b82601f10610bd457805160ff1916838001178555610c02565b82800160010185558215610c02579182015b82811115610c01578251825591602001919060010190610be6565b5b509050610c0f9190610c13565b5090565b5b80821115610c2c576000816000905550600101610c14565b5090565b6000604051905090565b600080fd5b600080fd5b6000819050919050565b610c5781610c44565b8114610c6257600080fd5b50565b600081359050610c7481610c4e565b92915050565b60008060408385031215610c9157610c90610c3a565b5b6000610c9f85828601610c65565b9250506020610cb085828601610c65565b9150509250929050565b600081519050919050565b600082825260208201905092915050565b60005b83811015610cf4578082015181840152602081019050610cd9565b83811115610d03576000848401525b50505050565b6000601f19601f8301169050919050565b6000610d2582610cba565b610d2f8185610cc5565b9350610d3f818560208601610cd6565b610d4881610d09565b840191505092915050565b60006020820190508181036000830152610d6d8184610d1a565b905092915050565b600060ff82169050919050565b610d8b81610d75565b82525050565b6000602082019050610da66000830184610d82565b92915050565b600080fd5b600080fd5b7f4e487b7100000000000000000000000000000000000000000000000000000000600052604160045260246000fd5b610dee82610d09565b810181811067ffffffffffffffff82111715610e0d57610e0c610db6565b5b80604052505050565b6000610e20610c30565b9050610e2c8282610de5565b919050565b600067ffffffffffffffff821115610e4c57610e4b610db6565b5b610e5582610d09565b9050602081019050919050565b82818337600083830152505050565b6000610e84610e7f84610e31565b610e16565b905082815260208101848484011115610ea057610e9f610db1565b5b610eab848285610e62565b509392505050565b600082601f830112610ec857610ec7610dac565b5b8135610ed8848260208601610e71565b91505092915050565b60008060408385031215610ef857610ef7610c3a565b5b6000610f0685828601610c65565b925050602083013567ffffffffffffffff811115610f2757610f26610c3f565b5b610f3385828601610eb3565b9150509250929050565b600073ffffffffffffffffffffffffffffffffffffffff82169050919050565b6000610f6882610f3d565b9050919050565b610f7881610f5d565b82525050565b6000602082019050610f936000830184610f6f565b92915050565b610fa281610d75565b8114610fad57600080fd5b50565b600081359050610fbf81610f99565b92915050565b600080600060608486031215610fde57610fdd610c3a565b5b6000610fec86828701610c65565b9350506020610ffd86828701610fb0565b925050604084013567ffffffffffffffff81111561101e5761101d610c3f565b5b61102a86828701610eb3565b9150509250925092565b61103d81610f5d565b811461104857600080fd5b50565b60008135905061105a81611034565b92915050565b6000806040838503121561107757611076610c3a565b5b60006110858582860161104b565b925050602061109685828601610c65565b9150509250929050565b6000602082840312156110b6576110b5610c3a565b5b60006110c484828501610c65565b91505092915050565b6110d681610c44565b82525050565b60006060820190506110f160008301866110cd565b6110fe6020830185610f6f565b61110b60408301846110cd565b949350505050565b7f4e487b7100000000000000000000000000000000000000000000000000000000600052602260045260246000fd5b6000600282049050600182168061115a57607f821691505b6020821081141561116e5761116d611113565b5b50919050565b7f496e76616c696420696e64657800000000000000000000000000000000000000600082015250565b60006111aa600d83610cc5565b91506111b582611174565b602082019050919050565b600060208201905081810360008301526111d98161119d565b9050919050565b7f4e487b7100000000000000000000000000000000000000000000000000000000600052603260045260246000fd5b7f4974656d20616c72656164792070757263686173656400000000000000000000600082015250565b6000611245601683610cc5565b91506112508261120f565b602082019050919050565b6000602082019050818103600083015261127481611238565b9050919050565b7f4e487b7100000000000000000000000000000000000000000000000000000000600052601160045260246000fd5b60006112b582610c44565b91507fffffffffffffffffffffffffffffffffffffffffffffffffffffffffffffffff8214156112e8576112e761127b565b5b600182019050919050565b7f4974656d206e6f7420666f756e6420696e206d656e7500000000000000000000600082015250565b6000611329601683610cc5565b9150611334826112f3565b602082019050919050565b600060208201905081810360008301526113588161131c565b9050919050565b600061136a82610c44565b915061137583610c44565b9250827fffffffffffffffffffffffffffffffffffffffffffffffffffffffffffffffff038211156113aa576113a961127b565b5b828201905092915050565b7f496e73756666696369656e74207061796d656e74000000000000000000000000600082015250565b60006113eb601483610cc5565b91506113f6826113b5565b602082019050919050565b6000602082019050818103600083015261141a816113de565b9050919050565b7f496e76616c6964206974656d2049440000000000000000000000000000000000600082015250565b6000611457600f83610cc5565b915061146282611421565b602082019050919050565b600060208201905081810360008301526114868161144a565b9050919050565b7f526174696e67206d757374206265203120746f20350000000000000000000000600082015250565b60006114c3601583610cc5565b91506114ce8261148d565b602082019050919050565b600060208201905081810360008301526114f2816114b6565b9050919050565b7f4f6e6c792073686f70206f776e65722063616e20776974686472617700000000600082015250565b600061152f601c83610cc5565b915061153a826114f9565b602082019050919050565b6000602082019050818103600083015261155e81611522565b905091905056fea264697066735822122047d48fc299d9e260a59b6810c500295c0aca283b72369f3dd2f5271c79b928d064736f6c634300080b0033",
    "immutableReferences": {},
    "source": "// SPDX-License-Identifier: MIT\npragma solidity >=0.4.22 <0.9.0;\n\nuint256 constant TOTAL_ITEMS = 10;\n\ncontract CoffeeShop {\n  address public ShopOwner = payable(msg.sender);\n\n  event OrderPlaced(address indexed customer, uint256 indexed itemId);\n\n  struct CoffeeShopMenu {\n    uint256 price;\n    address owner;\n    uint noOfItems;\n    string[] menuItems;\n    uint256[] menuItemsPrice;\n  }\n\n  CoffeeShopMenu[TOTAL_ITEMS] public items;\n\n  // NEW: Order history and ratings\n  mapping(address => string[]) public orderHistory;\n  mapping(uint256 => uint8[]) public ratings;\n  mapping(uint256 => string[]) public feedback;\n\n  constructor() {\n    ShopOwner = payable(msg.sender);\n    for (uint256 i = 0; i < TOTAL_ITEMS; i++) {\n      items[i].price = 1e16; // initial tax of 0.01 ETH\n      items[i].owner = address(0x0);\n      items[i].noOfItems = 5;\n\n      items[i].menuItems.push(\"Espresso\");\n      items[i].menuItemsPrice.push(5 * 1e17);\n\n      items[i].menuItems.push(\"Cappuccino\");\n      items[i].menuItemsPrice.push(7 * 1e17);\n\n      items[i].menuItems.push(\"Latte\");\n      items[i].menuItemsPrice.push(4 * 1e17);\n\n      items[i].menuItems.push(\"Mocha\");\n      items[i].menuItemsPrice.push(3 * 1e17);\n\n      items[i].menuItems.push(\"Americano\");\n      items[i].menuItemsPrice.push(8 * 1e17);\n    }\n  }\n\n  function stringsEquals(string memory s1, string memory s2) private pure returns (bool) {\n    bytes memory b1 = bytes(s1);\n    bytes memory b2 = bytes(s2);\n    uint256 l1 = b1.length;\n    if (l1 != b2.length) return false;\n    for (uint256 i = 0; i < l1; i++) {\n      if (b1[i] != b2[i]) return false;\n    }\n    return true;\n  }\n\n  function buyItem(uint256 _index, string memory itemName) external payable {\n    require(_index < TOTAL_ITEMS && _index >= 0, \"Invalid index\");\n    require(items[_index].owner == address(0x0), \"Item already purchased\");\n\n    int f = -1;\n    for (uint i = 0; i < items[_index].noOfItems; i++) {\n      if (stringsEquals(itemName, items[_index].menuItems[i])) {\n        f = int(i);\n      }\n    }\n    require(f != -1, \"Item not found in menu\");\n\n    require(\n      msg.value >= (items[_index].price + items[_index].menuItemsPrice[uint(f)]),\n      \"Insufficient payment\"\n    );\n\n    items[_index].owner = msg.sender;\n    orderHistory[msg.sender].push(itemName);\n    emit OrderPlaced(msg.sender, _index);\n  }\n\n  function rateItem(uint256 itemId, uint8 stars, string memory comment) external {\n    require(itemId < TOTAL_ITEMS, \"Invalid item ID\");\n    require(stars >= 1 && stars <= 5, \"Rating must be 1 to 5\");\n\n    ratings[itemId].push(stars);\n    feedback[itemId].push(comment);\n  }\n\n  function withdrawMoney() public {\n    require(msg.sender == ShopOwner, \"Only shop owner can withdraw\");\n    payable(ShopOwner).transfer(address(this).balance);\n  }\n}\n",
    "sourcePath": "/workspaces/coffe-shop/contracts/CoffeeShop.sol",
    "compiler": {
        "name": "solc",
        "version": "0.8.11+commit.d7f03943.Emscripten.clang"
    },
    "schemaVersion": "3.4.16",
    "updatedAt": "2025-04-01T11:35:16.520Z",
    "networkType": "ethereum",
    "devdoc": {
        "kind": "dev",
        "methods": {},
        "version": 1
    },
    "userdoc": {
        "kind": "user",
        "methods": {},
        "version": 1
    }
}